:1040000050AA00201B9E05001D6D0200D5950500DD
:10401000A70A0A010042000004180FAC60674701BC
:104020000000000000000000000000000000000090
:10403000000000002CAE05000000000000000000A1
:104040000000000000000000FFFFFFFFFFFFFFFF78
:10405000FFFFFFFF00600F000000000000000000F5
:10406000FFFFFFFFFFFFFFFF8000000000000000D8
:104070000000000000000000000000000000000040
:1040800000000000000000007C5F01207C5F012038
:1040900050AA0020E3F30500AC9E050050A80020C4
:0C40A0007C12002000E00F000000000077
:1042000050AA00201B9E05001D6D0200D5950500DB
:10421000A9940500D9950500DD9505000000000072
:10422000000000000000000000000000AF7000006F
:10423000E19505004F5A0000539F050017730000D9
:10424000E9950500E9950500E9950500E995050062
:10425000E99505004D9A0300B7F402007D3E020087
:10426000E9950500E9950500A9AA0300EF430200BE
:104270001B440200B1460200DD460200E99505003C
:10428000E9950500E9950500E9950500C78E000050
:10429000E9950500B5940500E9950500E995050047
:1042A000E9950500B99505005D420200E995050014
:1042B000E9950500E9950500E9950500FB1A04005C
:1042C000AF1A0400AD1A040059150400F91A0400CD
:1042D000B11A0400B51A0400B31A0400B59605001B
:1042E0002D1B0400E9950500E99505002102010058
:1042F000E9950500E9950500E99505006F9E000028
:10430000E9950500E9950500E9950500E9950500A1
:10431000E9950500E9950500E9950500E995050091
:10432000E9950500E9950500E9950500E995050081
:10433000E9950500104B30B40200714C012C16DBDE
:10434000714800680300704D284208D0704803424D
:1043500002D07FF001000CE05FF0FF3009E012EACC
:104360000300884201D1002003E0641EE6E77FF0ED
:10437000020030BC70472DE9F0410500140064488C
:10438000056060422002400702D53210292EE0DF8E
:10439000F884810868C8F800000F1D241F002C1342
:1043A000D008210820FFF7C6FF060040B20028050C
:1043B000D0042059490860300E300117E0382A1225
:1043C0003F2A1003E9E70420531810010021212E91
:1043D0002002AFFF80462E4304D11022A7101112F5
:1043E0001027BDE8F081F8B50400E00401D10120F8
:1043F00000E00020C0B24048056815F480352D0C5F
:10440000444E41F6713030600120424A70053D480B
:10441000046002203E54A00285FF070054127D1064
:1044200010010120392010012800C018100501D00A
:104430000020306038242004F2BD2DE9F24FE080E6
:1044400006002615F0030000286E800214F0030F0A
:104450000E200C2148076817F480373F0CDFF894D2
:10446000807E21D0100101202256101CA946DDF8C3
:1044700000A0002C20D019F50050400B4003B0EBF9
:104480000900844201D2A34607E01464145B5FEA8A
:104490005B3B5FEA4B3BBBEB090B5A465146484638
:1044A000FFF75228100ED11BEB0909DA44B4EB0BCD
:1044B00004DCE701200F523238A81202A821662539
:1044C00042100FBDE8F28F809698001C0003400652
:1044D000000100020412140C121804121004123C01
:1044E00004130C10040001200340000080B55E4A54
:1044F0005E480188002000F096FC010089B2532933
:1045000001DB5221080080B202BD2DE9FC47040006
:1045100057480068006845792800C0B200F018FFCD
:1045200006002000C0B201903000C0B200904DA340
:1045300041224FF48051092001F098F84D4F4E4828
:10454000398800EB0108002001F084F9FFF7CEFF65
:104550008146A24650463100C0B2C9B288421ED23E
:10456000484680B23988C91C884218DB6A465146E1
:10457000C9B22800C0B200F0E8FE00280CD0BDF897
:10458000000001F078F99DF8020001F063F998F855
:104590000000401C88F800001AF1010ADAE700F078
:1045A0008FFB01000120BDE8F6872DE9FF470400DD
:1045B0002F480068006845792800C0B200F0C2FEAC
:1045C00006002000C0B201903000C0B2009025A3C8
:1045D00042224FF48051092001F048F8254F264827
:1045E000398800EB0108002001F034F9FFF77EFF65
:1045F0008146A24650463100C0B2C9B288422AD292
:10460000484680B239880831884224DB6A465146E0
:10461000C9B22800C0B200F092FE002818D0BDF840
:10462000000001F028F99DF8020001F013F9BDF82F
:10463000040001F020F9BDF8060001F01CF99DF816
:10464000080001F007F998F80000401C88F8000005
:104650001AF1010ACEE700F033FB0100012004B09B
:10466000BDE8F08775750000A8B600203A4F01201C
:104670008CB70020BC5E0120B4B6002010B5040049
:104680002000C0B201F016FF01000800C0B2FF28F0
:1046900008D00800C0B2022804D2DFF8A00AC9B2CC
:1046A000405C00E0002010BD1CB50400022000901A
:1046B00001AB002203212000C0B202F029FAC0B2EF
:1046C000002805D1BDF80400002801D0012000E039
:1046D0000020C0B216BDF0B4060014001D00049FF7
:1046E000002200233800C0B2092802D30020002194
:1046F00026E05FF0000C60463900C0B2C9B28842C3
:1047000012D21B0243EA126312023900C9B2604698
:10471000C0B2091A06EB010010F8010C00211218B2
:104720004B411CF1010CE6E7AB4206D801D3A24293
:1047300003D2A01A75EB030102E0101B73EB050115
:10474000F0BC704738B50400DFF8F4092168098827
:104750000180216849884180216849790171216877
:10476000097941714FF48251C180216889798906A4
:1047700003D5C18851F02001C1802168897949069B
:1047800003D5C18851F04001C180A06900280AD139
:10479000E088DFF8B0190880DFF8AC09017811F083
:1047A000FD0101700EE0DFF8A009017851F002016F
:1047B0000170DFF898591622A169280002F0FEFB6B
:1047C0000020287031BD10B500242000C0B20028A0
:1047D0000AD12000C0B202F070FCFF2001F01AFFE5
:1047E00002F084FC641CF0E701F0A3F9C0B20200FF
:1047F00092B20121DFF8440902F030FCDFF84039C1
:10480000DFF84C295221DFF84C0900F0FBFE02F0E2
:10481000B3FC02F081FD02F094FE02F039FF04F0D7
:104820009EFB05F04EFA05F090FA05F0E4FA05F06B
:104830001DFB05F01DFB01F0C2FA10BD80B505F0AF
:1048400085FA01BD80B505F0BDFC002805D106F054
:1048500039FF002801D104F0DEFE00F097FD00F0E2
:10486000A5FD01BD704738B504002068407901F00E
:1048700021FE05002800C0B2FF2801D1002044E03D
:10488000DFF8D8082900C9B209010144097B227F59
:10489000914201D0002038E02900C9B20901014449
:1048A00049882268128891420FD0216809884FF602
:1048B000FF72914207D12900C9B20901084440881A
:1048C000B0F5004F01DB00201FE02079022802D064
:1048D0002079032809D1206801892068407907F0F0
:1048E000C3F9002801D100200FE0A07B002803D0ED
:1048F000200007F04BFA02E0200007F078FA0028C9
:1049000001D0012000E00020C0B232BD2DE9F84FF7
:1049100005000E00170098460A9CDDF82C90DDF883
:1049200030A03878400702D55FF0050B01E05FF05A
:10493000030B40465946C9B280B289B2884201D2BF
:10494000002058E0CAF800508AF80460AAF806402F
:10495000CAF80870AAF80C80387810F001008AF8BC
:104960000E003878C0B2800810F001008AF80F00FD
:104970003878C0B2C00810F001008AF81500012094
:104980008AF814009AF80F0000280FD0424692B21D
:104990009AF8141089B2380001F004F8AAF810004F
:1049A0009AF81400801C8AF8140002E00020AAF88B
:1049B00010009AF81400411C8AF81410C0B2385C38
:1049C0008AF812009AF81400411C8AF81410C0B238
:1049D000385C8AF81300BAF80C009AF8141089B2FF
:1049E000884201D2002006E0CAF8189007F087FE3E
:1049F0008AF81C000120BDE8F28F2DE9F14F84B048
:104A00000D0016001F000F9C5FF00008DFF850B784
:104A10005846DFF85017202207F070FFCDF808B095
:104A20000194BDF8380000903B009BB23200290091
:104A3000C9B20498FFF76AFF002800F09780DFF8FA
:104A40001807C0F800B09BF81200DFF81C170870B8
:104A50005846FFF707FF5846FFF774FE584607F021
:104A6000A1FF002802D0012080467FE0002C3DD12C
:104A70002800C0B204280BD02800C0B2052807D0F7
:104A80002800C0B2022803D02800C0B2032802D1F7
:104A90005FF0010901E05FF00009BBF8060001903A
:104AA000DBF8000040880090DBF8000003884A46ED
:104AB000D2B201219BF8130000F071F9002818D040
:104AC000DBF800008079800613D4DFF8A0A601206F
:104AD0008AF800007E21584600F057F98DF80C0046
:104AE00000208AF80000012080463FE0207D8007FA
:104AF0003CD5DBF800004079FF2833D15FF0000996
:104B000001F017F84946C9B281422FD24846C0B2D7
:104B100001F0E0FC82464846C0B201F00EF80028E1
:104B20000AD0BBF81020DBF8000041885046C0B224
:104B300001F08EFB002800D111E05846FFF702FE7D
:104B4000DBF8000080F805A0DFF8F40580F804A089
:104B50005846FFF788FE002801D00120804619F151
:104B60000109CDE75846FFF77EFE804600F05CFE67
:104B700016220021DFF8D40502F070FA0020DFF8D9
:104B8000D81508604046C0B205B0BDE8F08FDFF828
:104B9000E0050178491C0170007810F07F00704733
:104BA000002811D0DFF8CC150A78012A04D1018839
:104BB00051F04001018007E00978022904D1028800
:104BC0004FF6BF710A4002807047002814D0DFF80A
:104BD000A8150A78012A08D1DFF8A02512780A70F2
:104BE000017851F01001017006E00978022903D123
:104BF000017851F01001017070477CB50400DFF8B6
:104C000048552878C00701D5002058E0DFF848153E
:104C10000868002815D0086800688079800605D5E6
:104C2000DFF81C05C28852F02002C28008680068C4
:104C30008079400605D5DFF80805C18851F04001AC
:104C4000C180DFF810251078400704D5DFF818057B
:104C50000078D07003E0DFF81005007850702878F5
:104C600080070CD54926DFF8E8040188DFF8DC046A
:104C700008F069F9297811F0FD0129701EE0DFF8CC
:104C8000C40401884FF6FC7399420CDA552601944E
:104C90000092DFF8BC140B88DFF8A4240188002000
:104CA00008F0D5FB0AE0422600941300DFF8A014B8
:104CB0000A88DFF88C14008808F095FBC0B276BD36
:104CC00080B50020FFF799FF02BD38B504000D0044
:104CD0002A002100C9B2DFF88004006800F009F85A
:104CE00032BD10B5040000212000C0B2FFF7EDFF77
:104CF00010BDF8B504000D0016002079002804D07E
:104D00002079012801D000203EE0A0680078C0068C
:104D100005D52800C0B2002801D1002034E0A07BD6
:104D2000002804D1E07C0B2801D100202CE00020D9
:104D3000DFF81C140880607D002801D1082700E0FE
:104D40000027E07B002804D117F0FB0000F082FD73
:104D500007E057F00400C0B200F07CFD208A00F0AC
:104D60008AFDA07C00F076FD0B2000F073FDE07C56
:104D700000F070FD2800C0B200F06CFD2000FFF7CD
:104D8000E1FC3000FFF739FFF2BD38B504000D003B
:104D900000222900C9B22000FFF7ABFF32BD2DE988
:104DA000F04105000E0017009846069CDFF8D0136E
:104DB0000878012804D0DFF8B4030078002805D073
:104DC0000020DFF8A813087000202AE03000C0B2ED
:104DD000002805D13800C0B2002801D0002020E012
:104DE0000878002801D101201BE00878012801D1B2
:104DF000002016E020004FF6574180B2884201D1D2
:104E000001200EE02B00DBB23200D2B2210089B2C9
:104E1000404680B200F021FA002801D0012000E0D5
:104E20000020BDE8F0812DE9F04104000D001600DE
:104E30004FF6FD775FF05208B079800601D5B8F1E2
:104E40000908F088400501D5B8F10808F088000588
:104E500001D5B8F10808F088000401D5B8F10208BE
:104E60002000C0B2002808D0012808D002280CD0A9
:104E7000032810D0062811D011E02F000FE02800E1
:104E8000C0B208F05DFE070009E02800C0B209F0DA
:104E90006DF8070003E0B8F1010800E0FFE7380013
:104EA00080B209F00CFAB8EB0000C0B2BDE8F081A6
:104EB00010B40B009BB2C25413009BB21B0A0C002F
:104EC000A4B20444637010BC704710B40B009BB2D2
:104ED000C25413001B0A0C00A4B2044463701300F4
:104EE0001B0C0C00A4B20444A37013001B0E0C0096
:104EF000A4B20444E37010BC7047F8B505000C0080
:104F00001600002C02D10020287018E02078FF281D
:104F100002D12078287012E0200000F07FFD070009
:104F200030003900C0B2C9B2884200D237003A001E
:104F3000D2B292B2611C681C02F040F82F70F1BD31
:104F4000F8B505000C001600002C04D10020687094
:104F5000687828701EE02078FF2806D16078FF2846
:104F600003D1FF202870687014E0200000F05EFD7F
:104F700007003000390080B289B2884200D2370081
:104F80003A0092B2A11CA81C02F018F82F70BFB210
:104F90003F0A6F70F1BD2DE9F04304001800C0B264
:104FA000002800F081801000C0B205287ADA5FF096
:104FB000000800275FF0FF3C5FF0000E704691464E
:104FC000C0B25FFA89F9484531D2002C01D10026E0
:104FD00006E01600F6B2761E7046C0B2361AA65D1E
:104FE000B1465FFA89F9501EB0EB0E00C0B2C000A6
:104FF00019FA00F959EA080891465FFA89F9B9F1F6
:1050000001097046C0B2B9EB000911F809000500AA
:10501000A9465FFA89F9501EB0EB0E00C0B2C0007D
:1050200019FA00F959EA07071EF1010EC6E7100048
:10503000C0B204282BDA1000C0B2C000401EC14626
:1050400059FA00F95FEAC9700BD55FF00109D2B2D5
:10505000D00019FA00F9BCEB090919F1010959EA64
:1050600008081000C0B2C000401EB94659FA00F945
:105070005FEAC9700BD55FF00109D2B2D00019FA0E
:1050800000F9BCEB090919F1010959EA070747457D
:1050900001DA01203DE0B84502DA5FF0FF3038E088
:1050A000002036E0002034E0002738009446C0B2EB
:1050B0005FFA8CFC60452BD2002C01D1002606E063
:1050C0001600F6B2761E3800C0B2361AA65D9446B7
:1050D0005FFA8CFCBCF1010C3800C0B2BCEB000CD8
:1050E00011F80C0005002800B446C0B25FFA8CFC31
:1050F000604501D201200CE03000AC46C0B25FFA3E
:105100008CFC604502D25FF0FF3002E07F1CCCE7F0
:105110000020BDE8F08310B401000020194A03000C
:10512000DBB2D35C0C00E4B2A34201D2801CF5E7F1
:10513000C0B21044407810BC70470000C05E01202F
:10514000A8B600203A4F01200E5F012090B7002042
:10515000BC5E0120B4B600208CB7002058B60020F9
:105160006CB70020D8F005009AB100200A5F01203A
:105170009BB100200B5F01200C5F01200D5F01201F
:1051800099B1002024A505000100C9B2282904DB3B
:10519000C0B2302801DA012000E00020C0B2704720
:1051A00038B504000D002800C0B201F083F90100F9
:1051B0000800C0B2FF2801D1A32005E000200A00AA
:1051C000D2B204F83200002032BDF8B504000D0060
:1051D00016002800C0B201F06DF907003800C0B217
:1051E000FF2801D1A32006E031003800C0B204EB53
:1051F000C00001F0FAFFF2BD01000800C0B210F0DB
:10520000E000C0B2002808D0802808D0A02808D02C
:10521000C02808D0E02808D009E0002008E01C20C1
:1052200006E01D2004E01E2002E01F2000E0FF2019
:10523000704710F01F007047704710B40400012041
:1052400010BC704710B40400012010BC704710B4AB
:105250000400012010BC7047704710B40400002007
:1052600010BC704703000020704703000020704707
:1052700010B40400002010BC704710B404000020DB
:1052800010BC704710B40400002010BC704710B46C
:105290000400012010BC704710B40400012010BCB1
:1052A0007047020000207047020000207047030092
:1052B000002070477047030000207047704710B40B
:1052C0000400002010BC7047010084207047704724
:1052D0007047704770477047010000207047704763
:1052E00070470120704703000020704780B509F027
:1052F0002EF809F03EF801BD10B5040009F092FC4B
:105300000AF0E0F809F04CF9FCE7704780B50AF0C4
:1053100085FB02BD032070477047010000207047E5
:105320000100012088814FF6FE70C88101200861CC
:1053300000200870012070477047704770470300D5
:1053400000207047010000207047030000207047D4
:10535000010000207047704703000020704770472D
:1053600010B40400002010BC7047010000207047FA
:1053700002000020704710B40400002010BC7047E9
:105380000300002070470300002070477047B520DD
:1053900070470100002070470100002070477047EF
:1053A0000300002070477047704770477047704790
:1053B0000300002070477047704770472DE9FF4F8A
:1053C00081B00400DDF840900026BDF808000328F5
:1053D00007DBBDF81000002805D0BDF8080005283F
:1053E00001DA00200BE1BDF81000002805D09DF87F
:1053F0000C0050F004008DF80C009DF80C003100FA
:1054000089B26054761CBDF8100000280DD0BDF89C
:105410001000310089B26054761CBDF8100080B2D3
:10542000000A310089B26054761CFFF7B0FB3100EE
:1054300089B26054761C9DF83800310089B26054FE
:10544000761C00270F983900C9B2405C002800F094
:10545000D480002082460021002000900F983A005E
:10546000D2B210F802804046C0B2742868DAD9F887
:10547000000019F1040900905FF0000B4046C0B233
:105480004C2807D04046C0B2532803D04046C0B293
:10549000622825D1D9F8000019F104090500404619
:1054A000C0B24C280CD1280080B282464FF6FF7063
:1054B000824502D15FF0000B6FE05FF0020B6CE001
:1054C0004046C0B2532868D12800C0B28246BAF123
:1054D000FF0F02D15FF0000B5FE05FF0010B5CE0BB
:1054E0004046C0B26C2805D1009800F09FFA801C9D
:1054F000050052E04046C0B2732805D1009800F084
:105500008DFA401C050048E04046C0B2302808DB58
:105510004046C0B23A2804DA4046C0B230380500EE
:105520003BE04046C0B2412808DB4046C0B24828B4
:1055300004DA4046C0B2373805002EE000205EE0B5
:10554000002005004046C0B2752802D15FF0010B73
:1055500016E04046C0B2762802D15FF0020B0FE0A1
:105560004046C0B2782802D15FF0030B08E0404605
:10557000C0B2772802D15FF0040B01E000203EE0CA
:105580005846C0B2032804DAD9F800A019F104097A
:1055900003E0D9F800A019F10409BDF808103200A1
:1055A00092B2280080B282185846C0B28218914246
:1055B00001DA002023E05846C0B2002809D03000AC
:1055C00080B204F800A0761C5FEA1A2ABBF1010B36
:1055D000F1E7280080B200280DD00098002801D102
:1055E00000200CE02A0092B20099300080B22044E2
:1055F00001F0E4FCAE197F1C24E7300080B205B056
:10560000BDE8F08F10B4824C2060824C2180824C27
:105610002260824C236010BC70472DE9FE430400D9
:105620000D0016001F007E48D0F800800DF12C09F7
:10563000CDF808900A9801903800C0B2009033006D
:105640009BB22200D2B27348018871480068FFF70C
:10565000B5FE71490968088070490A6855804FF4A1
:1056600082520968CA8080B2BDE8FE832DE9FE43FC
:1056700004000D0016001F006A48D0F800800DF1EC
:105680002809CDF8089001973000C0B2009000239F
:105690002200D2B25F4801885D480068FFF78EFEA5
:1056A0005D49096808805D490A6855804FF4825257
:1056B0000968CA8080B2BDE8FE8310B504002300EB
:1056C000534802685448006801885448006807F04D
:1056D00001FF10BD80B50020FFF7EFFF02BDFEB552
:1056E00004000D0016001F0002973000C0B20190A8
:1056F000280080B200904648036847480068028846
:1057000046480168200080B207F0D1FDFEBD70B5AB
:1057100004000D00160000233200D2B2290089B225
:10572000200080B2FFF7DBFF70BD80B5384802680B
:105730003948006801883948006807F0FEFD02BD5D
:105740007CB504000D0016000196314800680090F9
:1057500031480068038831480268290089B2200076
:10576000C0B207F074FE76BD38B504000D0000220B
:10577000290089B22000C0B2FFF7E2FF32BDFEB5BA
:1057800004000D0016001F0002973000C0B2019007
:10579000280080B200901E4803681F4800680288F5
:1057A0001E480168200080B207F036FEFEBD70B5CD
:1057B00004000D00160000233200D2B2290089B285
:1057C000200080B2FFF7DBFF70BDF8B584B00400A5
:1057D0000D0016001F000E48006803900E48006878
:1057E00000880290BDF8280001900C4800684088AD
:1057F00000903B009BB2320092B22900200080B2A0
:1058000007F0B6FE05B0F0BD044800687047000020
:105810004CB500205E4E0120A0B60020A4B60020AA
:105820001CA5050020A5050080B50020754908705D
:105830000AF06CF97449088052220021734801F083
:105840000DFC0020724908800C220021714801F0F3
:1058500005FC01BD01006E480288522A09DA6B4A34
:105860000388D15403885B1C038000881044401EC9
:1058700000E00020704738B505002800C0B2FFF7EF
:10588000E9FF0400280080B2000AC0B2FFF7E2FF7F
:105890000100002C03D0002901D0200000E00020EE
:1058A00032BDF8B507003800C0B2FFF7D3FF0600DD
:1058B0003800000AC0B2FFF7CDFF05003800000C29
:1058C000C0B2FFF7C7FF04003800000EC0B2FFF7F8
:1058D000C1FF0100002E07D0002D05D0002C03D001
:1058E000002901D0300000E00020F2BDF8B504002E
:1058F0000D00474E3188280080B24118522910DA35
:10590000424F2A0092B221003088384401F056FB01
:105910003088281830803088ADB2451B07EB050071
:1059200000E00020F2BDF0B4040000261D001700C6
:10593000BFB28C461FFA8CFC1800C0B210EB0C0CE6
:10594000674501DA002011E02800C0B200280CD021
:105950000F00BFB22800C0B2C71904EB070010F84F
:10596000010C10EB06266D1EEEE73000F0BC704710
:1059700070B504000D0016000423320092B2290015
:1059800089B22000FFF7CFFF70BD70B504000D0095
:1059900016000323320092B2290089B22000FFF7DB
:1059A000C2FF70BD70B504000D0016000223320066
:1059B00092B2290089B22000FFF7B5FF80B270BD16
:1059C000F8B504000D0016002800310080B289B23D
:1059D000884202D31048006812E02F00BFB22800AE
:1059E00080B2204400F01AF8C7197F1C300080B242
:1059F000B84202DA0848006802E0ADB204EB0500E4
:105A0000F2BD00000E5F01203A4F0120B4B6002025
:105A1000BC5E0120A8B600205CAC00200178FF2904
:105A200001D1002000E00078C0B2704710B504003A
:105A3000022200212000FFF7B5FF01004FF6FF72A0
:105A400089B2914201D10020FFE780B210BD7047BA
:105A50001FB5DFF8280A0088ADF8060003A8DFF8B4
:105A6000481A0A68026002A8DFF8401A0A68026051
:105A7000DFF83C0A0088ADF80200DFF8640A00880D
:105A8000ADF800000221002201AC20000AF068FB02
:105A90000220DFF8501A087000200100C9B2022964
:105AA00046DADFF8441A0DF106020300DBB2D25CDD
:105AB0000300DBB21B01CA5403AA0300DBB232F8B5
:105AC00013200300DBB21B010B445A8002AA03001F
:105AD000DBB232F813200300DBB21B010B449A80C7
:105AE0000DF102020300DBB2D25C0300DBB21B014A
:105AF0000B449A71DFF87C2A6B460400E4B21B5D0C
:105B000002EBC3020300DBB21B010B449A6001AA43
:105B10000300DBB2D25C0300DBB21B010B441A733F
:105B200001220300DBB21B0119444A73401CB4E795
:105B30001FBDDFF8B00900787047DFF8AC19C0B2BC
:105B400000010844407B10F0010070470100C9B219
:105B500041290AD00100C9B2422906D00100C9B2C8
:105B6000432902D0C0B2442801D1012000E0002026
:105B7000C0B270470100C9B2412902D0C0B2422868
:105B800001D1012000E00020C0B270470100C9B27D
:105B9000432902D0C0B2442801D1012000E00020F6
:105BA000C0B270472DE9F84F0700884691469A46E3
:105BB0000A9D0B9E33009BB22A00D2B2414689B2A5
:105BC0003800C0B200F092FB0400002C14D0042175
:105BD000200000F000FE8346584600280CD0380014
:105BE000C0B201F074FA5246D2B24946C9B2380086
:105BF000C0B2D84701F07AFABDE8F18F2DE9FE4F27
:105C00008046894614009A460C9D0E9F002C2ED08B
:105C1000002D2CD0504680B2002828D028780007CC
:105C200001D5402200E080223B009BB2D2B26188C5
:105C3000207900F05BFB0600002E18D00821300010
:105C400000F0C9FD83465846002810D0207901F0A5
:105C50003EFA9DF834000190009553469BB2220015
:105C6000494689B24046C0B2D84701F03FFABDE884
:105C7000F78F2DE9F04706000F0090469946089DE2
:105C80002B009BB24A46D2B2390089B23000C0B272
:105C900000F02CFB0400002C2CD0280080B200283F
:105CA00013D10221200000F096FD824650460028C4
:105CB00020D03000C0B201F00AFA414689B230006B
:105CC000C0B2D04701F012FA14E01021200000F019
:105CD00082FD8246504600280CD03000C0B201F050
:105CE000F6F92A0092B2414689B23000C0B2D047DC
:105CF00001F0FCF9BDE8F0872DE9F74F80469946A1
:105D00000C9F0D9D0E9E3B009BB24A46D2B2BDF841
:105D100004104046C0B200F0E9FA0400002C01D1A2
:105D2000862021E05FF0000A380080B2002819D1F7
:105D30002021200000F04FFD83465846002811D056
:105D40004046C0B201F0C3F90F9800903300DBB2B7
:105D50002A00D2B2BDF808104046C0B2D8478246E9
:105D600001F0C4F95046C0B2BDE8FE8F2DE9F04104
:105D70000400A568207801F0AAF9002630002979EE
:105D8000C0B2884217D229683200D2B214204243EE
:105D900001EB0208B8F800102078FFF75DFA012146
:105DA000404600F018FD07003800002801D0207898
:105DB000B847761CE2E701F099F9BDE8F08110B52B
:105DC0000024FFF7B6FE2100C9B281420FD22000A5
:105DD000C0B2FFF7B2FE002807D0DFF80C072100A1
:105DE000C9B209010844FFF7C1FF641CE9E710BD0F
:105DF0002DE9F84185B005000E00170098460C9C6F
:105E0000002001908DF80850ADF80A608DF80C80E4
:105E1000ADF80E70ADF81040002000900023002275
:105E200001A902A800F0E3F8019806B0BDE8F081EE
:105E30000100DFF8DC2700238A4206D210798006B1
:105E400001D5D078C3180C32F6E7DFF878099BB299
:105E5000184470472DE9F04706000C0017009A46D9
:105E6000089D97F80280280080B2002802D197F898
:105E7000039000E0A9464046C0B2FFF77BFE002831
:105E800007D04846421ED2B221003000FFF735F855
:105E90002CE04046C0B2FFF779FE002807D0B9F1E8
:105EA000020292B221003000FFF74AF81EE050468D
:105EB000C0B200280BD1280080B2002807D02800EB
:105EC000F97880B289B2884201D289200FE0002C93
:105ED00006D14A4692B20021300001F0BFF805E039
:105EE0004A4692B22100300001F068F80020BDE877
:105EF000F08730B40300002420000D0080B2ADB262
:105F0000A84209D218881500ADB2A84201D158881C
:105F100003E01B1D641CEFE7002030BC704710B588
:105F20000400DFF8EC06201A0C2190FBF1F00200CF
:105F300092B2DFF8F4080188DFF8F008FFF7D9FF24
:105F400010BD38B504000D002088B0F57C4F03DB90
:105F5000200000F006F802E02800FFF7E0FF80B222
:105F600032BD10B50400DFF8C808201A142190FBD8
:105F7000F1F0020092B2DFF8BC080188DFF8B8083F
:105F8000FFF7B7FF10BD38B504000D002088698801
:105F9000884210D1207B297908420CD02088B0F5A6
:105FA0007C4F06DB2000FFF7DCFF298980B28842A6
:105FB00001D1012000E00020C0B232BD70B5040064
:105FC0000D0016002888F18888420DD12088B0F590
:105FD0007C4F07DA29002000FFF7B3FF318980B238
:105FE000884201D1012000E00020C0B270BD2DE93F
:105FF000FF4F85B0040000250026FFF79AFD310011
:10600000C9B2814280F0DA80DFF8DC043100C9B225
:106010000901415C2278914240F0C7803100C9B249
:1060200009010844D0F808803000C0B2FFF785FDB0
:10603000002800F0C18000200700380098F8041004
:10604000C0B2884280F0B880D8F800103A00D2B2CE
:106050001420424301EB020921004846FFF793FF59
:10606000002800F09D805FF0000A5046B9F8081043
:1060700080B2884280F09780D9F80410524692B2DC
:106080000C20424301EB020B220059464846FFF721
:1060900095FF002879D00698002802D00698C0F80D
:1060A00000B09BF80400800604D55846FFF7C0FEF8
:1060B000029005E0DFF89008290089B208440290B8
:1060C0009DF84800002813D0079804900298039088
:1060D00059464846FFF735FFBBF80030020092B240
:1060E00061882078FFF7B3F800281AD17E2066E097
:1060F0000798002801D1002061E0029804900798D9
:10610000039059464846FFF71CFFBBF800300200D9
:1061100092B261882078FFF795F8002801D17E209F
:106120004DE09BF80400C00623D59DF848000028E8
:106130000DD059464846FFF704FF07990091030028
:106140009BB25A4661882078FFF7A6F810E05946BE
:106150004846FFF7F6FE9BF8031089B201910799B4
:10616000009103009BB25A4661882078FFF78FF8B0
:1061700009E0BDF8200000909DF848305A46049987
:106180000398FFF767FEC0B219E09BF8040010F017
:10619000300F02D19BF8030045191AF1010A64E798
:1061A000B9F80A0045197F1C47E73100C9B2090157
:1061B00008448068C0884519761C1EE7862009B00F
:1061C000BDE8F08F2DE9F84304000D0016001F0014
:1061D0005FF0000840462179C0B2884235D221687C
:1061E0004246D2B21420424301EB0209B9F8000042
:1061F000290089B2884225D13000C0B200280FD0D2
:106200003000C0B2802803D199F80C00000607D4F2
:106210003000C0B2402815D199F80C00400611D5C5
:10622000B9F80000B0F57C4F0ADB4846FFF799FE4D
:10623000390089B2884203D0380080B2002801D1E9
:10624000484603E018F10108C4E70020BDE8F283E6
:1062500070B504000D00160033009BB20022290027
:1062600089B22000C0B200F041F8002801D001201E
:1062700000E00020C0B270BD70B504000D00160033
:1062800033009BB24022290089B22000C0B200F046
:106290002DF8002801D0012000E00020C0B270BD20
:1062A00070B504000D00160033009BB28022290057
:1062B00089B22000C0B200F019F8002801D00120F6
:1062C00000E00020C0B270BD38B504000D0000230E
:1062D0004022290089B22000C0B200F007F800284F
:1062E00001D0012000E00020C0B232BD2DE9F04114
:1062F00004000D0016001F002000C0B200F0DAF804
:1063000080464046C0B2FF2801D100200FE03B008C
:106310009BB23200D2B2290089B27348C4465FFAF8
:106320008CFC5FEA0C1C60448068FFF74BFFBDE803
:10633000F0812DE9F04104000D0016001F0020003F
:10634000C0B200F0BFF880464046C0B2022810DA62
:106350003B009BB23200D2B2290089B26248C446E7
:106360005FFA8CFC5FEA0C1C60448068FFF72AFF30
:1063700000E00020BDE8F08170B504000D001600BB
:1063800033009BB24022290089B22000C0B200F045
:106390000CF870BD38B504000D000022290089B248
:1063A0002000C0B2FFF7E8FF32BD2DE9F84304003A
:1063B0000D0016001F005FF000083B009BB232008A
:1063C000D2B2290089B22000C0B2FFF78FFF0028A7
:1063D00001D1FF2029E05FF00009FFF7AAFB494641
:1063E000C9B281421FD240484946C9B20901415C45
:1063F0002200D2B2914216D03B009BB23200D2B200
:10640000290089B2CC465FFA8CFC5FEA0C1C10F8BC
:106410000C00FFF78EFF002802D018F10108FFE7FB
:1064200019F10109D9E74046C0B2BDE8F28370B561
:1064300004000D000026FFF77CFB3100C9B2814249
:1064400018D229493000C0B20001085C2200D2B243
:1064500090420DD12800C0B2002806D03000C0B252
:1064600000010844407BC00702D53000C0B202E002
:10647000761CE0E7FF2070BD0000000086C7050025
:1064800038B5040000212000C0B2FFF7D0FF05009E
:106490002800C0B2FF2801D1002003E02800C0B2CC
:1064A000FFF74BFB32BD000088A105008CA1050061
:1064B0007EC8050010B5040001212000C0B2FFF71E
:1064C000B6FF10BD10B5040000212000C0B2FFF7D8
:1064D000AEFF10BD0449C0B20001085C7047000067
:1064E00082C80500065F012058B60020F8B50500F7
:1064F0000E002800C0B2FFF7DDFF020000211000EF
:10650000C0B2FF2801D1002033E0DFF840041300BF
:10651000DBB21B0103449868002801D1002028E069
:1065200000273800D3F808C09CF804C0C0B260450A
:106530001DD29868D0F800C0BE465FFA8EFE1420C7
:1065400000FB0EFE0CEB0E0004003000C0B2002871
:1065500003D0207B400600D5491C3000C0B2002883
:1065600003D1207B000600D5491C7F1CD9E7080019
:10657000C0B2F2BD04A505002DE9F04105000E00F2
:1065800017002800C0B2FFF795FF0200002110009D
:10659000C0B2FF2801D1002037E0DFF8B0031300BC
:1065A000DBB21B0103445FF0000C6046D3F808E047
:1065B0009EF804E0C0B2704526D29868D0F800E09A
:1065C000E0465FFA88F8142000FB08F80EEB08009C
:1065D00004003800C0B2002802D0207B400606D458
:1065E0003800C0B200280CD1207B000609D5080075
:1065F000B646C0B25FFA8EFE704501D1200004E0BD
:10660000491C1CF1010CD0E70020BDE8F08100001E
:1066100038A3050010B5040000212000C0B200F02E
:106620000DF810BD10B5040001212000C0B200F02B
:1066300005F82000C0B206F0B4F910BD2DE9F14F05
:1066400086B00E0006F05BF88DF80500FFF771FAD2
:106650008DF804005FF0000840469DF80410C0B2B9
:10666000884280F0A3809DF81800FF2809D09DF88B
:106670001800FFF71FFF80464046C0B2FF2800F019
:106680009D80B2484146C9B2090100EB01099DF85D
:106690001800FF2806D199F80C009DF805108842D3
:1066A00040F08180002007003800D9F808100979EF
:1066B000C0B2884273D2D9F8080001683A00D2B259
:1066C0001420424301EB020ABAF8080040F22D11EF
:1066D000884201DB09F0D0FD002004002000BAF858
:1066E000081080B2884258D2DAF80410220092B220
:1066F0000C20424301EB020B9BF80400C0064AD475
:1067000099F800008DF80800BAF80000ADF80A000A
:106710009BF80400400601D5802000E040208DF861
:106720000C00BBF80000ADF80E0059465046FFF7CC
:1067300008FCADF810009BF8040040070CD59BF84E
:106740000300032803DADBF8080005000FE0DBF89C
:106750000800006805000AE09BF80300032803DA3C
:106760001BF10800050002E0DBF80800050001202D
:10677000009000232A00002102A8FFF738FC300017
:10678000C0B2002807D05B46BDF80A2099F8001077
:10679000280000F01AF8641CA0E77F1C84E79DF82D
:1067A0001800FF2802D118F1010855E73000C0B2E7
:1067B000002803D19DF8180000F006F807B0BDE8E6
:1067C000F08F000078B60020704710B41C79A40741
:1067D000FFD510BC704730B4020001230024107BA9
:1067E000084201D100200FE018000D00C0B2EDB248
:1067F000A84205D2107B184200D0641C5B00F3E76E
:106800001069E4B250F8240030BC704710B50400A1
:106810004F48201A8010020092B24E4801884E481C
:10682000FFF767FB10BD000032EF050018A505005B
:1068300064A4050030EF050014A505002DE9FE4F06
:1068400083460C000D9D0026012700215846C0B24A
:10685000002805D0607D002802D15FF0020815E015
:106860005846C0B2002805D0607D012802D15FF0F3
:1068700001080BE05846C0B2002805D1607D002811
:1068800002D15FF0080801E05FF004085FF0000942
:10689000484680B23C2852DADFF8B4A0484680B2BD
:1068A0003AF82000BDF80410884245D1484680B22D
:1068B0000AEB8000C07810EA080F3DD0484680B24D
:1068C0000AEB800080789DF83810884234D348461F
:1068D00080B20AEB8000C078C0060DD5E07B0028AE
:1068E0002AD0484680B20AEB8000FFF78FFF218A4A
:1068F00080B2814203D01FE0E07B00281CD19DF8CC
:106900003C00310080B289B2884205D03000BDF829
:10691000301080B2884202D3002007000FE04846C2
:1069200080B20AEB800080780299320092B28854DB
:106930002888401C2880761C19F10109A8E7380036
:10694000C0B2BDE8FE8F00009CB4002058B6002005
:1069500044A205002CEF050034A305002DE9F04FFB
:1069600085B006000F00904699460E9CDDF83CA0CD
:10697000109D2800C0B20290CDF804A0200080B283
:1069800000904B46DBB2424692B2390089B23000E9
:10699000C0B2FEF752FC83465846C0B2002803D06E
:1069A000022803D002D31FE001201FE05846C0B2E6
:1069B000022801D1012000E0002000210491C0B292
:1069C00003902800C0B20290CDF804A0200080B24D
:1069D00000904B46DBB2424692B2390089B2300099
:1069E000C0B200F0A3F901E05846C0B205B0BDE85E
:1069F000F08FF0B585B004000D0016001F000020D8
:106A00000490012003909DF82C0002900A980190B8
:106A1000002000903B00DBB2320092B2290089B224
:106A20002000C0B200F082F905B0F0BDF0B585B02D
:106A300004000D0016001F000020049001200390A8
:106A40009DF82800029001970020009080233200DA
:106A500092B2290089B22000C0B200F067F905B0F7
:106A6000F0BDF0B585B004000D0016001F00002039
:106A70000490012003909DF82800029001970020C7
:106A800000904023320092B2290089B22000C0B2A7
:106A900000F04CF905B0F0BDF0B585B004000D0074
:106AA00016001F0001200490002003909DF8300084
:106AB00002900B980190BDF8280000903B00DBB2DB
:106AC000320092B2290089B22000C0B200F02EF943
:106AD00005B0F0BD2DE9FF4105000E0017009846F6
:106AE0000B9C0C9803902000C0B280B202900A98D0
:106AF0000190002000904346DBB23A0092B2310090
:106B000089B22800C0B200F02AFA04B0BDE8F081D2
:106B10002DE9FF4105000E00170098460A9C002051
:106B200003902000C0B280B20290CDF80480002013
:106B3000009040233A0092B2310089B22800C0B2DE
:106B400000F00DFA04B0BDE8F0812DE9FB4F84B0F0
:106B50001600129D00275FF0000B5FF00008BDF8E3
:106B600040309DF81820BDF814109DF81000FFF774
:106B7000BDFB04009DF810008DF80000BDF8140066
:106B8000ADF802009DF818008DF80400ADF806601D
:106B9000BDF84000ADF80800002C05D06946200083
:106BA000FFF7F1F9002801D1012055E05FF000095D
:106BB0004846218980B2884241D261684A4692B2F1
:106BC0000C20424301EB020A2088B0F57C4F0ADA20
:106BD000BAF80000ADF806006A4651462000FFF7FB
:106BE000EDF9002828D0BAF80000310089B28842B7
:106BF00002D21BF1010B1DE038009DF8441080B259
:106C000089B2884216D2BAF80000FEF734FE9AF82C
:106C10000200FEF71FFE2800C0B2002809D09AF833
:106C20000400C00701D5072000E00520C0B2FEF730
:106C300011FE7F1C18F1010819F10109B8E7BFB274
:106C40001FFA8BFB1BEB07071FFA88F8474501D19A
:106C5000012000E00020C0B207B0BDE8F08F2DE9B0
:106C6000F84F8EB005000E0017009846199C2000C2
:106C700080B2052852DB04A803902120029005A8C9
:106C80000190BDF8600000904346DBB23A0092B23A
:106C9000310089B22800C0B200F061F9814648464F
:106CA000C0B2002822D105A99DF8100009F024FBEC
:106CB0008246200080B2001F514689B288422DDBF7
:106CC000380080B2FEF7D7FD0020FEF7C3FD9DF827
:106CD0001000FEF7BFFDDFF84CB0504680B2BBF8A5
:106CE0000010D1F15201884218DA08E0380080B271
:106CF000FEF7C1FD4846C0B2FEF7ACFD0EE05246BD
:106D000092B205A90848BBF80030184400F056F9C3
:106D1000BBF800001AEB0000ABF800000FB0BDE8B4
:106D2000F08F0000BC5E0120B4B600202DE9F04FCA
:106D300089B006000F0090469946129CDDF84CA0E1
:106D4000149D002004908DF81460ADF816708DF835
:106D50001890ADF81A80ADF81C4000200090002378
:106D6000002204A905A8FFF742F90498002801D1E0
:106D70008620F1E09DF8540000280DD128000499E8
:106D80008978C0B2884201D08D20E5E0049800796E
:106D9000C00701D48820DFE00498007940074ED571
:106DA0000498806840680390049880688068029026
:106DB00004988078FEF7E8F983460498C0788DF847
:106DC00000009DF80000032822DA03A8089002A81A
:106DD00001905B46DBB29DF8002051460898FEF713
:106DE000DAF88DF801005B46DBB29DF800205146D1
:106DF0000198FEF7D0F801009DF90100012805D0A7
:106E000008005FF0FF3240B2904218D18720A3E023
:106E10005B46DBB29DF8002051460398FEF7BBF8B5
:106E200001280AD05B46DBB29DF80020514602984B
:106E3000FEF7B1F810F1010F01D187208CE09DF829
:106E40005800002840F08780CDF80CA00498C07846
:106E500002902800C0B20190200080B200904B4602
:106E6000DBB2424692B2390089B23000C0B2FEF7BE
:106E700077FA83465846C0B2002802D05846C0B2BE
:106E80006AE0CDF80CA00498C07802902800C0B247
:106E90000190200080B200904B46DBB2424692B295
:106EA000390089B23000C0B2FEF726FF8DF8040029
:106EB0009DF80400002802D09DF804004CE0012059
:106EC000009000235246002105A8FFF790F8834662
:106ED0005846C0B2002802D05846C0B23CE0049BDD
:106EE0003A0092B23100C9B25046FFF76EFCCDF8BD
:106EF00008A02800C0B20190200080B200904B464C
:106F0000DBB2424692B2390089B23000C0B202F020
:106F100094FBCDF80CA00498C07802902800C0B271
:106F20000190200080B200904B46DBB2424692B204
:106F3000390089B23000C0B2FEF711FA200080B2E9
:106F400000904B46DBB2424692B2390089B2300023
:106F5000C0B2FEF78EFE002009B0BDE8F08F2DE92B
:106F6000F04F85B00700884691469A460E9DDDF8A1
:106F70003CB0109E119C002001908DF80870ADF877
:106F80000A808DF80CA0ADF80E90ADF810500020DE
:106F9000009033009BB25A4601A902A8FFF727F8D8
:106FA0000100C9B2002905D1002C03D001998978CC
:106FB0002170FFE7C0B205B0BDE8F08F30B4030028
:106FC0001D000C00AC4227D2100080B22844451EA0
:106FD000100080B22044441E100080B2042811DB4F
:106FE000121F20782870641E681E25780570641EA4
:106FF000401E25780570641E401E25780570641EAD
:10700000451EE9E7100080B2002825D020782870BE
:10701000641E6D1E521EF5E7100080B2042811DBBD
:10702000121F20782870641C681C25780570641C69
:10703000401C25780570641C401C25780570641C74
:10704000451CE9E7100080B2002805D020782870A0
:10705000641C6D1C521EF5E730BC704710B4040070
:1070600013009BB2002B03D02170641C521EF7E763
:1070700010BC7047F0B403001C000D00100080B27B
:10708000002811D020782E780700B446FFB25FFAAE
:107090008CFC674504D0C0B2F6B2801B00B204E09D
:1070A000521E641C6D1CE9E70020F0BC7047FEE72F
:1070B00010481149086000207047C0B2002801D173
:1070C000002000E07020C0B270470020704710B56B
:1070D00004002000C0B200F011F801000800C0B2A6
:1070E000FF2801D1A32000E0002010BD0020704740
:1070F000704700002EEF050008B7002010B504000F
:107100002000C0B2FFF7D6F901000800C0B2FF2886
:1071100001D1FF2000E0002010BD00210170704768
:1071200070B504000D0016003000C0B2FFF7CFFFAD
:10713000002020703000C0B2A847FFF7D7FF70BD15
:1071400080B5012258495948FFF7EAFF01BD80B5D3
:10715000012257495748FFF7E3FF01BD80B50122DF
:1071600055495648FFF7DCFF01BD80B5F222524970
:107170005348FFF7D5FF01BD80B5012009F0F4F9B0
:10718000504809F085F95049087001BD80B509F0F3
:10719000FFF9012803D04C48007809F064F901BDDB
:1071A00070B4030000242000C0B2484D2D8880B286
:1071B000A84217D2464D2600F6B20C20464305EBF6
:1071C000060005781E00F6B2B54209D145880E00CA
:1071D000B6B2B54204D105791600F6B2B54202D076
:1071E000641CE0E7002070BC704738B505000C0057
:1071F000002C03D1280009F0B7F809E0B4F1004FE2
:1072000004D22100280009F0B9F801E0022000E0D2
:10721000002032BD2DE9F0470700884691469A4686
:10722000089E099D4A46D2B2414689B23800C0B292
:10723000FFF7B6FF0400002C0FD03800C0B2FFF7F4
:107240001FF9002809D05146A068FFF7CEFF00289B
:1072500003D16671A571002000E00220BDE8F0872F
:10726000FEB504000D0016001F009DF820000190DF
:107270003800C0B2009033000022290089B22000FB
:10728000C0B2FFF7C7FFFEBD7CB504000D001600BD
:107290000020009000233200290089B22000C0B2F3
:1072A000FFF7DEFF76BD00006B3A0300E8B5002073
:1072B0004D400300F0B500202B3C0300F8B5002042
:1072C00000B6002070A00500FB4C01202CB100206E
:1072D00044AC002070B504000D0016003200D2B29C
:1072E000290089B22000C0B2FFF75AFF010000292F
:1072F00004D000208A681070002000E0022070BDD9
:1073000038B504000D000022290089B22000C0B267
:10731000FFF7E0FF32BDFEE780B500F072F801BD77
:10732000DFF808010078022801DB012000E00020DE
:10733000C0B2704738B50400DFF8F050287821005B
:10734000C9B2884205D02100C9B22878FDF7C1FF33
:107350002C7031BD10B5DFF8D840207800280BD153
:1073600000F05DF801212170002805D00188B1F5F9
:10737000817F01D3007D2070207810BD10B50400FE
:107380002000C0B2012808D1DFF8A0000078022850
:1073900003DA0220FFF7CEFF0BE02000C0B2002886
:1073A00007D1DFF888000078022802DB0020FFF711
:1073B000C1FF10BD38B5DFF87C502878FF281FD1F9
:1073C00009F01DF90400002C18D06088C0F34000BB
:1073D00010F0010028701822FF21DFF85C00FFF791
:1073E0003DFE287801280BD1FFF7B4FF052804DB08
:1073F000D921DFF8480009F055F901E00020287094
:1074000031BD10B5FFF78CFF002807D109F0E5F872
:1074100004000120FFF7B2FFFFF7CCFF10BD80B5DD
:10742000FFF7EFFF09F0EBF802BD0000325F01202B
:10743000335F0120AFB10020B0F1002094BD050002
:10744000F8B5684609F0E0FD009850F08000009023
:10745000684609F0DEFD05B000BD80B500F02CF8EF
:10746000002814D0844801680978012901D102203C
:1074700001E000680078C0B209F0EDFA09F0BDFE45
:10748000FFF7DEFF00F07AF8032004F06DF901BD8C
:1074900080B5FF20FFF7C6F8FF2004F0EFFBFF20C8
:1074A0000AF0F6FA06F0E6FE00F04BF8FDF745FFAD
:1074B00000207249088001BDF8B5684609F0A4FDB6
:1074C000009810F0010005B000BD18B587B001A903
:1074D000684608F094FD6A4C9DF80F00A070BDF856
:1074E0000C002080082201A9201DFFF767FD9DF8F0
:1074F00014006073002200212000FDF71FFF002010
:107500005E49088008B010BD80B5684608F081FD6E
:1075100001000800C0B293280BD1574800680078DA
:107520008DF800009DF80000012802D102208DF89E
:1075300000009DF8000002BD80B509F07DFDC0B2DD
:1075400002BD10B5012454F0020409F050FE0028D9
:1075500001D054F0040409F04DFE002801D054F08D
:1075600008042000C0B209F06AFD464809F06BFD2E
:10757000454809F06BFDFFF770FF10BD10B58EB0E8
:1075800004A84249282205F0B9F908F0C7FA0028F2
:1075900001D0002012E0684604F0D7F80400200073
:1075A000C0B2002802D02000C0B207E004A8FDF756
:1075B000C3FE04A9684609F01AFAC0B20EB010BDA5
:1075C00038B52E48018851F40071018004F07AF832
:1075D000012801D1012400E000240AF0FFFC05008D
:1075E0002000C0B2002803D12800C0B2002803D078
:1075F00009F0DFFCFFF74CFF31BD1FB504001F4849
:107600000188890506D52000C0B2912832D1FFF744
:107610003FFF2FE0007810F08F0F07D02000C0B29E
:10762000902802D1FFF751FF24E023E0684609F0DB
:10763000EBFC2000C0B290281CD10098C00719D5DF
:1076400000984008400000900020ADF80600BDF80A
:107650000600ADF804000020ADF808000020ADF8E9
:107660000C00BDF80C00ADF80A00684609F0D1FC2A
:107670000AF021FF1FBD000008B70020CE490120FD
:1076800034B30020008810020070EF0548A0050008
:107690001CB5DFF8C44B0A2200212000FFF7DEFCF6
:1076A00060220021DFF8B40BFFF7D8FCA020608037
:1076B00005208DF804002020009001AB102221212C
:1076C000F220FFF7B3F913BD00B587B00020DFF853
:1076D000881B087000208DF818005FF0FF300490C0
:1076E00000200390002002900020019000200090D4
:1076F000002304AA002100200BF047FA07B000BDC8
:1077000018B587B0DFF8504B207AC00717D55FF067
:10771000FF30049000208DF818000BF0BBFD002016
:107720002072002003900020029000200190002091
:107730000090002304AA002100200BF026FA00206C
:10774000DFF81C1B087008B010BD80B5FFF7BCFF48
:107750000020DFF8101B087001BD2DE9F84F040070
:107760000D00160014F00107C4F3420814F0100BCA
:107770005FFA8BFB5FEA1B1B14F020095FFA89F9A3
:107780005FEA5919DFF8E00A006800684079F228DA
:107790003BD1DFF8C4AA9AF80000002806D00CF00C
:1077A000C0F8BAF8061080B288422ED13800C0B2B4
:1077B000002828D00CF0B5F8AAF8060001208AF8B5
:1077C0000000A020AAF802008AF801808AF805903B
:1077D0009AF80100C00709D5290089B24FF47A70E0
:1077E0004143DFF8800A08F0C9FD05E0DFF8CC1C52
:1077F000DFF8700A08F0C2FD5846C0B2002804D075
:107800008AF8046001E0FFF75FFF0120BDE8F28F16
:1078100010B40400002010BC70472DE9FB4F90B05D
:10782000070014001C9D219E112100220DF12C083F
:10783000404608F095FC3800400A10F003008DF82F
:107840001900C7F341108DF81800B8465FEAD82830
:1078500018F007085FF000095FF0000BDFF8600C1C
:107860003840082802D100208DF88C00DFF8F8A9F4
:10787000DAF800000A900A980079042801D1012062
:107880008346002C01D10BA80400002D01D10BA8C8
:107890000500002E01D10BA806009DF848000090BD
:1078A0002300119A17F0070107A80CF03FF90028F0
:1078B00001D101207CE0DAF8000000684079F2286C
:1078C00075D19DF81900012871D09DF82400002879
:1078D00003D09DF82400022869D19DF824000028D7
:1078E0000AD10798002862D0079810F1070F03D338
:1078F000079810F1010F5AD19DF82400022806D1F3
:107900000022082107A803F011FF00284FD117F02B
:10791000180018284BD04046C0B2052803DB40466B
:10792000C0B2072843DB9DF81800002809D1F806EB
:1079300007D45846C0B2002839D18520FDF7D1F9C7
:1079400035E09DF88C0005902098049003960295F0
:10795000BDF888000190BDF878000090BDF8743043
:107960009DF8182007A938000CF051FC81464846C4
:10797000C0B2002807D0DFF8E0084078800702D5C1
:10798000FFF7A2FE13E0380711D54846C0B2002821
:107990000DD10CF068F982465046C0B2FF2806D1DE
:1079A0005846C0B2002802D18920FDF79AF901207B
:1079B00013B0BDE8F08F2DE9F34F93B090461C0053
:1079C0001E9D1F9E209FDDF88490112100220DF145
:1079D000380A504608F0C4FB002D01D10EA805005E
:1079E000DFF88408006800684079F22840F0D2800F
:1079F0003800C0B2F0285ED0F32840F09880002014
:107A00008DF8340000200B90002C01D00120C2E042
:107A1000BDF850A00CF02CFE824549D1DFF840A8FB
:107A20009AF80000002804D0DFF82C08007A8007BC
:107A30003CD508F077F80B3850F010008DF81000A6
:107A4000002003900020029004A8019001200090E3
:107A5000F3230BAA002101200BF097F8DFF8F8B709
:107A600001208BF8080008F05DF84146C9B20B31DF
:107A700088420ED00022012118F10B008140032022
:107A80000BF04FFB9BF8080010F0FD008BF808008E
:107A900005E09BF8080050F002008BF8080041F266
:107AA0008831504608F06AFC012074E0002072E042
:107AB000FFF726FE6EE09DF84C0010F007008DF8F1
:107AC0001C009DF81C00002801D1059409E002204B
:107AD0008DF81C008DF81D600822290005A8FFF70D
:107AE0006DFABDF850A00CF0C3FD824510D1002006
:107AF00003900020029019F10100019099F8000014
:107B00000090F02305AA002101200BF03EF80DE0C3
:107B1000002003900020029000200190002000909F
:107B2000002305AA002100200BF02FF832E03800D6
:107B3000C0B2F72807DA3800C0B2B0282ADB380014
:107B4000C0B2C02826DA9DF84C0010F003008DF872
:107B500028009DF82800002801D1089409E002209F
:107B60008DF828008DF829600822290008A8FFF761
:107B700025FA002003900020029019F101000190E5
:107B800099F8000000903B00DBB208AA0021012018
:107B90000AF0FBFF002015B0BDE8F08F10B4040020
:107BA000002010BC70472DE9F84304000D002E00A2
:107BB000626892B200213000FDF77AF9B61C207C91
:107BC000002806D1A26800213000FDF77EF9361D9D
:107BD00009E0207C022806D1082214F108013000B7
:107BE000FFF7ECF90836207C022802D1607C307067
:107BF000761C6068800405D5A28A00213000FDF75C
:107C000057F9B61C6068400410D5A07D3070761C12
:107C1000A26900213000FDF758F9361D102214F139
:107C20001C013000FFF7CAF9103608E02079800601
:107C300005D5A26900213000FDF747F9361D2079EE
:107C400040062BD50020370000213170761C5FF0F4
:107C500000084046C0B2022820DA4146C9B20C20D2
:107C6000414304EB010010F12C0999F800000328AE
:107C700011D1082219F102013000FFF79FF90836EF
:107C8000B9F80A2000213000FDF712F9B61C387847
:107C9000401C3870FFE718F10108DAE76068C0059A
:107CA0002BD50020370000213170761C5FF00008D2
:107CB0004046C0B2022820DA4146C9B20C204143F6
:107CC00004EB010010F12C0999F80000022811D1F1
:107CD000B9F8022000213000FDF7EAF8B61CB9F827
:107CE000042000213000FDF7E3F8B61C3878401C72
:107CF0003870FFE718F10108DAE794F844003070B3
:107D000016F10108207910F01800182805D094F811
:107D1000450088F8000018F101086068000408D5E3
:107D20006268120C92B200214046FDF7C1F818F1CA
:107D300002086068C0032DD500204646002188F85F
:107D4000001018F1010800273800C0B2022821DA1B
:107D50003900C9B20C20414304EB010010F12C0999
:107D600099F80000032813D1082219F102014046B6
:107D7000FFF724F918F10808B9F80A200021404655
:107D8000FDF796F818F1020830780A303070FFE7F6
:107D90007F1CD9E7B8EB0505280080B2BDE8F28367
:107DA0002DE9FF4FB7B0449C002500269DF8DC006C
:107DB00010F007008DF819009DF8DC00C0F3C10039
:107DC0008DF81800112100220AAF380008F0C8F918
:107DD0003998002801D10AA83990DFF88C14086876
:107DE0000079002840F01581086800684079F22881
:107DF00001D000200EE1002006003000C0B20528AE
:107E00000FDA24A93000C0B20BF0B2FE002801D076
:107E10000020FFE09DF89000FF2800D06D1C761C2C
:107E2000EBE79DF81800002858D19DF8E800009075
:107E3000399B389A9DF8191007A80BF077FE002897
:107E400000F0E78007A80BF0EAFE06003000C0B2A1
:107E5000FF2817D1002005900020049000200390F7
:107E60002000C0B202902800C0B201908B20009088
:107E7000DFF8DC3B0B2221210120FDF7F7FBFCF7AB
:107E80001FFFC6E000200590002004900120039011
:107E9000FF2002902800C0B2019000200090DFF87F
:107EA000B03B0B2221210120FDF7E0FB24A930008B
:107EB000C0B20BF05DFE002801D00020AAE0DFF880
:107EC000947BDFF8940B3988014424A8FFF76BFEFC
:107ED000398840183880FCF7F3FE9AE09DF81800C6
:107EE000012840F0968020002900C0B2C9B2884223
:107EF00017D300200590002004900020039020005C
:107F0000C0B202902800C0B201908B200090DFF830
:107F1000403B0B2221210120FDF7A8FBFCF7D0FEFE
:107F200077E0DFF82C8B0020059000200490FF20E4
:107F300003902000C0B202902800C0B2019000203F
:107F4000009043460B2221210120FDF78FFB0020EA
:107F500005000027002006003000C0B2052838DAEE
:107F600024A93000C0B20BF003FE002801D000208D
:107F700050E05FF000099DF89000FF2827D06D1CAD
:107F800020002900C0B2C9B2884220D20FA924A87B
:107F9000FFF709FE8346DFF8BCAABAF8001058467E
:107FA00080B24118522911D25A4692B20FA9DFF875
:107FB000A80ABAF800301844FFF700F8BAF8000031
:107FC0001BEB0000AAF800007F1C00E001E0761C1B
:107FD000C2E7DFF8840A8771FCF772FE81464846E3
:107FE000C0B2742815D10020059000200490002014
:107FF00003902000C0B202902800C0B2019000207F
:10800000009043460B2221210120FDF72FFBFCF7B6
:1080100057FE01203BB0BDE8F08F2DE9FF4FA9B01E
:10802000379C00250020ADF80000002600279DF8B1
:10803000A400F22872D1BDF8A80021286ED1BDF8A5
:10804000AC0011286AD19DF8B000802866D1BDF837
:10805000D800002862D1200080B206285EDBBDF87F
:10806000AC00FDF708FCDFF8EC99B9F800B01BF1A3
:10807000040BADF800B05FF000084046C0B2052820
:108080002CDA01A94046C0B20BF072FD002801D0E5
:10809000002045E09DF80400FF281CD013A901A88A
:1080A000FFF781FD8246210089B2524692B25846BE
:1080B00080B28218914202DA892005000EE0524611
:1080C00092B213A9DFF890095B469BB21844FEF701
:1080D00075FF1AEB0B0B18F10108CEE7BDF8000095
:1080E000BBEB000006002800C0B200280BD128001E
:1080F000C0B2FDF7AFFB4320FDF7ACFB300080B210
:10810000FDF7B9FB03E02800C0B2FDF7A3FBB9F807
:1081100000003018A9F80000012007003800C0B2A4
:108120002DB0BDE8F08F2DE9F34F8BB09046994606
:10813000169C179D199E1B9F002100200A90DFF8B6
:1081400018B19BF80000002801D1012080E099F8C7
:108150000800002805D1D9F80000002801D101202D
:1081600076E03800C0B2E02803D03800C0B2E22880
:1081700001D101206CE03000C0B2002801D0012004
:1081800066E09DF82C007C2801D10020010099F8C0
:10819000080001432000C0B251EA00112800C0B21B
:1081A00051EA801151F40061ADF824100CF060FA2E
:1081B0001C9908919DF83010079180B206901F9885
:1081C00005909DF8780004903800C0B203901A988A
:1081D00002902000C0B201904046C0B2009099F8D1
:1081E00009304A46D9F80010BDF824000BF022FCF3
:1081F000FDF70AFB8246F2208AF80400F2208AF892
:10820000050005200CF062FB9BF80500002805D056
:10821000BBF806100020FDF7A7FA15E0B8F10C0036
:108220008AF80A00BAF8060050F00200AAF8060020
:1082300048460DF0BBFFB8F10C02D2B2010089B282
:108240004FF6FD70FDF7B3FA00200CF03FFB012064
:108250000DB0BDE8F08F0000A8EE0020B4EE0020C5
:108260001CEF002014EF00208CB700200100080054
:10827000C0B2400910F00600D0F103004001C0B2C6
:1082800070472DE9F24F8AB0070090469946149C3A
:10829000179D199E99F80800002804D1D9F800000C
:1082A000002800F0078199F8080000280AD1D9F8C1
:1082B000000010F1070F05D3D9F8000010F1010FED
:1082C00040F0F88099F80800022811D10021080038
:1082D000C0B2082807DA0800C0B219F80000002868
:1082E00001D1491CF3E70800C0B2082800F0E28081
:1082F0009DF85800002840F0DD802000C0B2022820
:1083000003D02000C0B2032808D13800C0B27E28B4
:1083100003D03800C0B27F2800D107E00021280038
:10832000C0B2002802D03000C0B2E02899F808108E
:108330002800C0B2002801D051F008013800C0B2B6
:108340007E2803D03800C0B27F280BD151F40071D1
:108350009DF85400002801D0042000E0002051EADC
:10836000801103E09DF8540051EA80112000C0B252
:1083700051EA001151F40061ADF82410DFF824BB7C
:108380009BF8050000283FD00CF072F91A9908916B
:108390009DF82810079180B206901D9805909DF8D1
:1083A000700004903000C0B2039018980290200032
:1083B000C0B201904046C0B2009099F809304A46D8
:1083C000D9F80010BDF824000BF034FB2800C0B22F
:1083D000002803D020200CF079FA02E005200CF0F0
:1083E00075FAFDF711FA8246F2208AF80400F220AD
:1083F0008AF80500BBF806100020FDF7B5F98346A2
:1084000000200CF063FA55E00CF032F91A9908914B
:108410009DF82810079180B206901D9805909DF850
:10842000700004903000C0B20390189802902000B1
:10843000C0B201904046C0B2009099F809304A4657
:10844000D9F80010BDF824000BF0F4FAFDF7DCF9C0
:108450008246F2208AF80400F2208AF80500B8F17A
:108460000C008AF80A00BAF8060050F00200AAF8D8
:1084700006002800C0B2002809D09DF82800FFF7A8
:10848000F5FEC0B2203080B20CF020FA02E00520E8
:108490000CF01CFA48460DF089FEB8F10C02D2B27D
:1084A000010089B24FF6FD70FDF781F98346002087
:1084B0000CF00CFA01200BB0BDE8F08F0071020047
:1084C00008000200F8B58AB004000D0016001F0075
:1084D000199809909DF8600008909DF85C0007903D
:1084E000169806909DF854000590149804909DF8F5
:1084F0004C0003909DF8480002909DF844000190C4
:108500009DF8400000903B003200D2B22900C9B271
:108510002000C0B2FFF7B5FE0BB0F0BDF8B58AB0D1
:1085200004000D0016001F00199809909DF86000C6
:1085300008909DF85C000790169806909DF85400EE
:108540000590149804909DF84C0003909DF8480005
:1085500002909DF8440001909DF8400000903B007F
:108560003200D2B22900C9B22000C0B2FFF789FEA2
:108570000BB0F0BD2DE9F94F8BB00E001700169C23
:10858000DDF870801E9DDDF87C90DFF818A99AF860
:108590000000002801D10120A2E09AF8080010F0A4
:1085A0000300012800F09B80002050F008009DF897
:1085B0002C107E2901D150F400702100C9B250EA7C
:1085C00001109DF85C1050EA811050F40060ADF885
:1085D00024009AF80500002835D00CF049F8CDF8B1
:1085E00020803100C9B2079180B20690CDF8149076
:1085F0002800C0B204909DF86C0003901A98029075
:108600002000C0B201903800C0B2009000230022C8
:108610000021BDF824000BF00DFAFDF7F5F88346B4
:10862000F2208BF80400F2208BF8050020200CF0DB
:108630004DF9BAF806100020FDF796F882460020A2
:108640000CF044F94BE00CF013F8CDF82080310029
:10865000C9B2079180B20690CDF814902800C0B23C
:1086600004909DF86C0003901A9802902000C0B20C
:1086700001903800C0B20090002300220021BDF814
:1086800024000BF0D7F9FDF7BFF88246F2208AF8F4
:108690000400F2208AF80500B7F10C008AF80A00FD
:1086A000BAF8060050F00200AAF806003000C0B286
:1086B000FFF7DCFDC0B2203080B20CF007F90C9857
:1086C0000DF074FDB7F10C02D2B2010089B24FF681
:1086D000FD70FDF76CF8834600200CF0F7F80120E0
:1086E0000DB0BDE8F08F2DE9F34F99B01700984613
:1086F000279C2B9D5FF000090020ADF81800280092
:10870000C0B2FF2801D101209EE12800C0B2FF289D
:108710002AD04820DFF890170A682B00DBB24343C9
:108720001A440B68AC465FFA8CFC00FB0CFC6344FB
:108730005B6853F4007353600A682B00DBB2434359
:108740001A4409682B00DBB200FB03F008444068C0
:1087500050F48060506007A92800C0B20BF008FAFE
:10876000002801D001206FE198F8080050EA0909BB
:1087700049465FF0000A5046C0B2022824DA0C22B3
:1087800007A85346DBB25343184490F82C00002846
:1087900008D007A85346DBB25343184490F82C0086
:1087A000032802D151F008010BE007A85346DBB2C1
:1087B00002FB03F2104490F82C00022801D151F082
:1087C00020011AF1010AD6E79DF82000000601D524
:1087D00051F010019DF8900051EA80119DF894002D
:1087E00051EA002151F4805151F48041ADF81A1042
:1087F0009DF8A400E02803D09DF8A400E12804D14E
:10880000DFF8A0060078002809D02000C0B20028B8
:1088100005D0BDF81A0050F40060ADF81A009DF8BC
:108820009000002802D13800C0B228900BF020FF41
:108830009DF86810059180B204902D9803909DF8E2
:10884000B00002909DF8A40001902898009098F83C
:1088500009304246D8F80010BDF81A000BF084F831
:108860005FF000094846C0B2022880F2AD805FF098
:108870000C0A07A84946C9B20AFB01F1084490F85E
:108880002C00002809D007A84946C9B20AFB01F10B
:10889000084490F82C0003283FD1FCF7B5FF0600F0
:1088A000F2203071F22070712000C0B2002803D095
:1088B00020200CF00BF802E005200CF007F84FF632
:1088C000FC7B07A84946C9B20AFB01F10844C08EE7
:1088D000584513DB07A84946C9B20AFB01F1084411
:1088E0002E300BF051FE010089B2594506DA07A976
:1088F0004A46D2B20AFB02F21144C88607A849468A
:10890000C9B20AFB01FA5044C18E0020FCF72CFFCB
:10891000824600200BF0DAFF53E007A84946C9B2AF
:108920000AFB01F1084490F82C00022849D1FCF719
:108930006BFF0600F2203071F2207071B7F1090070
:10894000B072F08850F00200F0809DF86000F07284
:108950002000C0B2002809D09DF86800FFF786FC0F
:10896000C0B2203080B20BF0B1FF02E005200BF066
:10897000ADFF07A84946C9B20AFB01F10844008EC1
:108980004FF6FF71884203D140460DF00FFC06E020
:1089900007A84946C9B20AFB01F10844008EB7F1A5
:1089A0000902D2B2010089B207A84B46DBB20AFB2A
:1089B00003FA5044C08DFCF7AAFE824600200BF05B
:1089C00085FF19F101094DE79DF8200000063AD511
:1089D000FCF71AFF0600F2203071F2207071B772B6
:1089E000F08850F00200F0809DF86000F0722000E6
:1089F000C0B2002809D09DF86800FFF737FCC0B26C
:108A0000203080B20BF062FF02E005200BF05EFF29
:108A10000898800404D5BDF83000ADF8180004E0D3
:108A200040460DF0C3FBADF8180040460DF0BEFB0C
:108A30003A00D2B2BDF8181080B2FCF768FE824648
:108A400000200BF043FF01201BB0BDE8F08F0000B9
:108A500008AE0500BC5E0120B4B600200200012073
:108A600070472DE9F34F93B00700904699461E9C3E
:108A7000209D239EDDF89CA0DFF82804007AC00723
:108A800004D53000C0B2E32840F0FB812000C0B222
:108A900000282BD1DFF80C040078002826D15FF0E5
:108AA000000B48460BF0BBF88DF800009DF8000065
:108AB000FF2816D001A99DF800000BF059F801001D
:108AC0000800C0B2002840F0DC810298400403D4C2
:108AD0009DF81A00002802D05FF0010B01E05FF062
:108AE000000B5846C0B2002840F0CB813800C0B21D
:108AF00000280ED03800C0B27C280AD03800C0B29E
:108B00007F2840F0BE81DFF89C030078002800F049
:108B1000B8814146C9B24846FFF7A0FF002800F0DF
:108B2000B081E0490878002800F080812800C0B2B8
:108B3000002823D0CDF824A09DF8980008909DF837
:108B400094000790249806903000C0B205902298B7
:108B500004909DF8840003902800C0B202909DF814
:108B60007C0001902000C0B200904B464246D2B239
:108B70009DF850103800C0B2FFF7D5FA3800C0B2E7
:108B80007F282AD12000C0B2032826D15FF07E0BB7
:108B9000CDF824A09DF8980008909DF894000790C7
:108BA000249806903000C0B20590229804909DF859
:108BB000840003902800C0B202909DF87C000190D0
:108BC0002000C0B200904B464246D2B29DF85010F1
:108BD0005846C0B2FFF755FB53E13000C0B2E02861
:108BE00007D0C0F09A80E2284DD027D3E3286FD079
:108BF00093E0CDF824A09DF8980008909DF894008B
:108C00000790249806903000C0B2059022980490F6
:108C10009DF8840003902800C0B202909DF87C006B
:108C200001902000C0B200904B464246D2B29DF85F
:108C300050103800C0B2FFF724FB22E1CDF824A089
:108C40009DF8980008909DF894000790249806904D
:108C50003000C0B20590229804909DF884000390E3
:108C60002800C0B202909DF87C0001902000C0B2A4
:108C700000904B464246D2B29DF850103800C0B228
:108C8000FFF720FCFDE0CDF824A09DF898000890A7
:108C90009DF894000790249806903000C0B205908B
:108CA000229804909DF8840003902800C0B202909E
:108CB0009DF87C0001902000C0B200904B464246D7
:108CC000D2B29DF850103800C0B2FFF727FCD8E0B0
:108CD000CDF824A09DF8980008909DF89400079086
:108CE000249806903000C0B20590229804909DF818
:108CF000840003902800C0B202909DF87C0001908F
:108D00002000C0B200904B464246D2B29DF85010AF
:108D10003800C0B2FFF72EFCB3E03800C0B27C28A8
:108D200034D13000C0B2E42803DB3000C0B2F028F8
:108D300007DB3000C0B2B02828DB3000C0B2C0284A
:108D400024DACDF824A09DF8980008909DF89400AE
:108D50000790249806903000C0B2059022980490A5
:108D60009DF8840003902800C0B202909DF87C001A
:108D700001902000C0B200904B464246D2B29DF80E
:108D800050103800C0B2FFF77CFA4EE03800C0B295
:108D90007F2826D17E200700CDF824A09DF89800DA
:108DA00008909DF894000790249806903000C0B277
:108DB0000590229804909DF8840003902800C0B28A
:108DC00002909DF87C0001902000C0B200904B46BC
:108DD0004246D2B29DF850103800C0B2FFF751FAA7
:108DE00023E0CDF824A09DF8980008909DF8940009
:108DF0000790249806903000C0B205902298049005
:108E00009DF8840003902800C0B202909DF87C0079
:108E100001902000C0B200904B464246D2B29DF86D
:108E200050103800C0B2FFF75EFC2AE03000C0B23C
:108E3000E22802D10878002823D0CDF824A09DF89C
:108E4000980008909DF894000790249806903000B0
:108E5000C0B20590229804909DF8840003902800E9
:108E6000C0B202909DF87C0001902000C0B200903A
:108E70004B464246D2B29DF850103800C0B2FFF7C0
:108E800032FC15B0BDE8F08F38B504000D002000AD
:108E9000C0B2002805D10348007AC00701D5FEF70B
:108EA0002FFC31BDA8EE0020F0AD002010B504006D
:108EB0002000C0B2912805D101F084F9002801D129
:108EC0000DF08CF910BDFEE72DE9FC4105000E0008
:108ED00017009846099C2000C0B200280AD00898C4
:108EE000009043469BB23A00310089B22800C0B2DC
:108EF00004F0DDFABDE8F38110B40300DFF8A80B3D
:108F000000240A00D2B2944206DA1A5D5040DFF81B
:108F10009C2B5043641CF4E710BC704738B5040028
:108F20000D0014232200D2B2242128000DF0B7FA3C
:108F300031BD38B504000D0014232A002100C9B248
:108F400024200DF008FB31BD10B504002000C0B294
:108F5000902803D10DF0EEFB00F062FC10BD18B5B7
:108F600085B00024062C16DA69462000C0B2FFF74F
:108F7000D5FF9DF8010000280BD09DF800000028C7
:108F800007D10120DFF8281B182202FB04F211444C
:108F90000874641CE6E700F043FC06B010BD2DE940
:108FA000F04F99B000240020ADF8160000208DF895
:108FB000120000208DF813005FF0000B5FF0000A34
:108FC00000263000C0B2062880F2358106A93000A4
:108FD000C0B2FFF7A3FF0DF037FC1827DFF8D08AE7
:108FE0003100C9B2794358F80110401A0B909DF82E
:108FF000190000281DD09DF81800002819D14FF441
:109000007A710B98BDF824204A43904211D3300066
:10901000C0B278434044007C00280BD1BDF8260044
:10902000002806D00B98BDF8262001FB02F18842EB
:1090300000D2FEE004A803902120029010A8019025
:10904000BDF8200000909DF81E30BDF81C20BDF832
:109050001A109DF81900FDF782FF8DF811009DF898
:109060001100002840F0E5809DF81000FCF78EFD0F
:10907000002840F0DE8010A99DF8100007F03CF9B0
:10908000ADF81400BDF81400C01C8DF81300002CBE
:1090900027D09DF81900217988421CD1BDF81A000B
:1090A0006188884217D19DF81E00C0B2C0099DF8A2
:1090B000121088420FD1BDF82000BDF8161088426A
:1090C00009D15146C9B2DFF8EC0902889DF81300B6
:1090D0008218914205DA6188207900F0B7F8002003
:1090E0000400002C56D1FCF78FFB04009DF81E00F5
:1090F00010F08000C0B2C0098DF812009DF8120077
:10910000002801D0002000E00820CBA100910A2314
:10911000BDF82020BDF81A10C0B2FCF77EFA9DF809
:10912000190020714FF48250E080BDF82000ADF8A6
:109130001600FF208246002005002800C0B2032848
:1091400028DA0CA92800C0B204F016FF8DF811002F
:109150009DF8110000281BD19DF831009DF81910D1
:10916000884215D1BDF83200BDF81A1088420FD1DF
:1091700022009DF83D1089B29DF83000FBF753FEA8
:10918000834658465146C0B2C9B2884200D2DA4638
:109190006D1CD2E7BDF81C00FCF76DFB9DF81000BC
:1091A000FCF758FBBDF8141010A8FCF79FFB30002B
:1091B000C0B278434044002101740DF045FB3100FA
:1091C000C9B2794348F801000020009010A801902E
:1091D000BDF814909DF81000412803D09DF81000B0
:1091E00042280CD1BDF81400411EC9B20DF1410056
:1091F000FFF782FE009068460190042081464846B1
:10920000C0B2092815D23000C0B2784308EB000282
:1092100000200021C2E902014A46D2B292B201996D
:109220003000C0B207FB00F708EB07000830FDF77D
:10923000C5FE761CC5E6002C03D06188207900F0BD
:1092400005F800F0EDFA19B0BDE8F08F70B5040034
:109250000D002000C0B2FBF711FA002803D128004E
:1092600080B203280CD1DFF85008FCF726FA06007C
:109270003000C0B2B42801D1FCF72CFAFCF755FA43
:1092800070BD2DE9F84F88B00600347D00208DF8C0
:109290000600707D002804D108208DF807004027C3
:1092A00003E000208DF80700802763A000900723CB
:1092B000328A306841889DF80700FCF7AEF920003B
:1092C00080B2C01CB189884280F2A780B0682100BA
:1092D00089B2405C8DF80500641CB289210089B216
:1092E000B068FCF75FFB8046A41C9DF805000028D1
:1092F00002D0012863D075E05FF00009B06821005A
:1093000089B2405C8DF80400641CB289210089B2E6
:10931000B068FCF747FBADF80800A41CB289210037
:1093200089B2B068FCF73EFB8246A41C9DF804009D
:10933000FBF7F1FE00280FD19DF8040006F0C0FFF6
:1093400005002B00DBB2B289210089B2B068FCF7BE
:10935000EAFA8146EDB22C19308A00903B00DBB26C
:10936000424692B23068418830684079FCF740FD4F
:109370000500002D07D0A8789DF80410884202D07F
:109380005FF08D0B1AE0306840798DF80D00306881
:109390004088ADF80E00ADF810808DF81270308A5C
:1093A000ADF81400BDF80800ADF81800ADF81AA02B
:1093B000CDF81C9003A800F0A8FA834614E0B28907
:1093C000210089B2B068FCF7EDFA0500A41C2B005F
:1093D0009BB23A00D2B2414689B2300000F070FB35
:1093E000834601E05FF0850B5846C0B200283FF489
:1093F00066AF5846C0B2FCF72DFA9DF80500FCF7A1
:1094000029FA404680B2FCF736FA01208DF80600B2
:109410005846C0B285287FF452AF9DF80600002858
:1094200002D10020FCF716FAFBF74AFC01000120EC
:1094300009B0BDE8F08F0000000000002DE9F84FF2
:1094400088B0050095F814B0687D002805D1082083
:109450008DF804005FF0400804E000208DF804005F
:109460005FF08008BDA0009009232A8A28684188FF
:109470009DF80400FCF7D1F8A889594689B2C91CA7
:109480008842C0F2C180002007905FF00009A86800
:10949000594689B2405C06001BF1010BAA89594666
:1094A00089B2A868FCF77EFA82461BF1020B3000F5
:1094B000C0B2002801281DD8288A00904346DBB29C
:1094C000524692B22868418828684079FCF790FC9F
:1094D0000400002C0BD18620FCF7BCF93000C0B290
:1094E000FCF7B8F9504680B2FCF7C5F9C4E7002094
:1094F00007000BE08520FCF7ADF93000C0B2FCF7A7
:10950000A9F9504680B2FCF7B6F9B5E73800C0B209
:1095100006283BDA02A93800C0B2FFF7FFFC9DF82D
:1095200008003100C9B288422ED19DF8090029688F
:109530004979884228D1BDF80A00296849888842BB
:1095400022D1BDF80C00514689B288421CD19DF849
:109550000E004146C9B2884216D1BDF81000298AD2
:10956000884211D19DF8080000280AD0BDF81400E7
:10957000E988884208D19DF816002968097988424F
:1095800002D10120814601E07F1CBFE74846C0B2FE
:1095900000280BD18B20FCF75DF93000C0B2FCF73E
:1095A00059F9504680B2FCF766F965E70020FCF7F0
:1095B00051F93000C0B2FCF74DF9504680B2FCF7CB
:1095C0005AF93000C0B2002802D0012817D053E762
:1095D000002C13D0A078FCF73DF9BDF81400FCF77F
:1095E0004AF9BDF81600FCF746F9A078FBF793FDA1
:1095F000002803D1A17802A800F0EBFA3CE7BDF8FF
:109600001800FCF738F937E7FBF75AFB0100012097
:1096100009B0BDE8F08F10B500242000C0B20628C4
:1096200005DA2000C0B200F052F9641CF5E7002012
:10963000DFF888140870002010BD2DE9FF4F8BB0B3
:10964000DDF860B0199CDDF8689000252800C0B2F4
:10965000062880F2808006A92800C0B2FFF75EFCD1
:109660009DF81800002874D19DF819009DF82C1061
:1096700088426ED1BDF81A00BDF83010884268D11A
:10968000BDF81C00BDF83410884262D19DF81E0060
:109690009DF8381088425CD1BDF82000594689B247
:1096A000884256D1002001902000C0B206F008FE8A
:1096B0008246CDF808902000C0B2412803D0200097
:1096C000C0B242280DD14846FCF7A8F90100C9B242
:1096D00019F10100FFF710FC019001A8029004208D
:1096E00082461826DFF8C8735046C0B200902800A2
:1096F000C0B270433844D0E902230298FAF7EBFF76
:10970000CDE904012000C0B2FBF705FD80464046CC
:10971000C0B2012805D1DDE9040100290ED10028DD
:109720000CD14046C0B2002812D1DDE904230A98CA
:1097300000218B420CD301D8824209D32800C0B249
:1097400006FB00F607EB06000121017400F068F843
:1097500001E06D1C7AE70FB0BDE8F08F000000005B
:10976000020050784B78984220D150884B8898421C
:109770001CD190888B88984218D190798B79984227
:1097800014D110890B89984210D110780B78984227
:109790000CD11078002807D090898B89984205D188
:1097A000907B8B7B984201D1012000E00020704724
:1097B00078B585B0040000252800C0B2062814DA68
:1097C00069462800C0B2FFF7A9FB21006846FFF7F1
:1097D000C7FF002807D021002800C0B2FFF7A9FB6F
:1097E0002800C0B21AE06D1CE6E700263000C0B2C7
:1097F000062812DA69463000C0B2FFF78FFB9DF8E9
:109800000100002807D121003000C0B2FFF791FB12
:109810003000C0B202E0761CE8E7FF2006B070BD61
:109820002DE9F84185B05FF0FF352E0000273800A4
:10983000C0B206283DDA69463800C0B2FFF76EFBB9
:109840009DF80100002832D09DF8000000282ED19C
:109850004FF47A70BDF80C8000FB08F8BDF80E409C
:1098600044430CF0F1FF1823DFF844C23900C9B2B9
:1098700059435CF80110411A2A003800C0B203FBBA
:1098800000F30CEB0300007C002806D0884501D2D1
:10989000002209E0B8EB010206E0002C04D08C4263
:1098A00001D2002200E0621AB24200D216007F1CF0
:1098B000BDE716F1010F04D031008048FDF795FC9B
:1098C00002E000207D49087006B0BDE8F08118B5BF
:1098D00085B0040069462000C0B2FFF71FFB0020DE
:1098E0008DF8010069462000C0B2FFF722FB6846F0
:1098F000FBF713FD06B010BD10B504002000C0B288
:10990000FFF7E5FFFFF78CFF10BD2DE9F84F86B09C
:109910000500FF26012728890090AB79AA8869886D
:109920006878FCF765FA0400002C01D18620B8E0C5
:10993000E889002805D0E889A989884201D28720D2
:10994000AFE05FF000084046C0B2062831DA01A956
:109950004046C0B2FFF7E2FA9DF8040000281CD18F
:109960009DF805006978884217D1BDF8060069881E
:10997000884212D1BDF80800A98888420DD19DF80F
:109980000A00A979884208D1BDF80C0029898842CB
:1099900003D10020070046460BE09DF80500002893
:1099A00004D13000C0B2FF2800D1464618F10108AA
:1099B000C9E74FF6FF71E889884209D13800C0B283
:1099C000002803D13000C0B2FFF796FF002068E006
:1099D0005FF00009E889002810D1A88988420DD1DC
:1099E0001422290001A8FDF7E9FA01A80CF0B0FE45
:1099F000002803D001200700012081463000C0B2BA
:109A0000FF2801D189204CE03800C0B200282BD0BB
:109A100000208DF8040068788DF805006888ADF89E
:109A20000600A888ADF80800A8798DF80A002889F2
:109A3000ADF80C003000C0B2062815DA5FF0180A45
:109A4000DFF86CB00CF000FF3100C9B20AFB01F185
:109A50004BF801003000C0B20AFB00FA0BEB0A021F
:109A600000200021C2E902014846C0B2002807D107
:109A7000A889ADF81000E889ADF8120028690590B2
:109A800001A8FBF74AFC82465046C0B2002806D126
:109A900001A93000C0B2FFF74CFAFFF7C1FE5046F3
:109AA000C0B207B0BDE8F08FC59D1C8193010001D5
:109AB00060B30020BC5E0120C98E0000A0B9002068
:109AC0002DE9F04F85B004000D0016001F004FF087
:109AD000FF085FF0010A5FF000094846C0B206289F
:109AE00040DA69464846C0B2FFF718FA9DF8000010
:109AF00001282BD19DF8010021684979884225D1A0
:109B0000BDF802002168498888421FD1BDF80400D1
:109B1000290089B2884219D19DF806003100C9B2E6
:109B2000884213D1BDF80800218A88420ED1BDF8C1
:109B30000C00E188884209D19DF80E00216809795E
:109B4000884203D100208246C8460BE09DF8010000
:109B5000002804D14046C0B2FF2800D1C84619F100
:109B60000109BAE74046C0B2FF2801D189202DE0A3
:109B70005046C0B2002818D001208DF8000020689F
:109B800040798DF8010020684088ADF80200ADF8FA
:109B900004508DF80660208AADF80800E088ADF822
:109BA0000C00206800798DF80E00ADF81070684642
:109BB000FBF7B3FB83465846C0B2002804D1694680
:109BC0004046C0B2FFF7B5F95846C0B205B0BDE88F
:109BD000F08F2DE9F04104000D002800C0B206F01E
:109BE0006FFB0600002C17D13000C0B2002820D037
:109BF000FF272800C0B2FBF7C7FA002806D03000C4
:109C0000C0B2012801D1802700E000273800C0B28F
:109C1000FBF720FE761EE7E727693000C0B2002878
:109C200007D0B8464046C0B2FBF714FE3F0A761E86
